:020000040000fa
:080000000002040000000000f2
:020000040000fa
:100400004f8520000e7f22000e01880000000000b2
:1004100000012000200288000c000700809d2000c1
:100420000100200011000700000020000000e00093
:10043000020032000000020000000000ce020200b4
:10044000000000000040da000000fe004440a90067
:10045000600320000000e0000300320000002000e4
:10046000a00188004440a800000006009101880017
:10047000800078000000eb0015003700e2804000ab
:1004800032a0b4009101ba00e280400032a0b40072
:100490009102ba00e280400032a0b4000002eb00fa
:1004a000472bde00f507b200602ce10004003a00a3
:1004b0000059eb008301e900fdff3e000400370016
:1004c0006128e100010032000082eb000400070017
:1004d0001101ba000200e000e8ff3a000000060047
:1004e0003159ba008301e9000c0032002159ba00e9
:1004f0008301e900080032000400e00003003a0034
:10050000e280400032a0b400f5ff370011d9ba00f4
:100510008301e900faff3a008100e800e180400031
:1005200032a0b400000006000040da000000fe0027
:020000040000fa
:020000040001f9
:0457f800ad7b000085
:020000040000fa
:020000040001f9
:0457fc003f3f00002b
:020000040000fa
:100008009402000094020000940200009402000090
:100018009402000094020000940200009402000080
:100028009402000094020000940200009402000070
:100038009402000094020000940200009402000060
:100048009402000094020000940200009402000050
:100058009402000094020000940200009402000040
:100068009402000094020000940200003a06000086
:100078009402000094020000940200009402000020
:100088009402000094020000940200009402000010
:100098009402000094020000940200009402000000
:1000a80094020000940200009402000094020000f0
:1000b80094020000940200009402000094020000e0
:1000c80094020000940200009402000094020000d0
:1000d80094020000940200009402000094020000c0
:1000e80094020000940200009402000094020000b0
:1000f80094020000940200009402000094020000a0
:10010800940200009402000094020000940200008f
:10011800940200009402000094020000940200007f
:10012800940200009402000094020000940200006f
:10013800940200009402000094020000940200005f
:10014800940200009402000094020000940200004f
:10015800940200009402000094020000940200003f
:10016800940200009402000094020000940200002f
:10017800940200009402000094020000940200001f
:10018800940200009402000094020000940200000f
:1001980094020000940200009402000094020000ff
:1001a80094020000940200009402000094020000ef
:1001b80094020000940200009402000094020000df
:1001c80094020000940200009402000094020000cf
:1001d80094020000940200009402000094020000bf
:1001e80094020000940200009402000094020000af
:0801f8009402000094020000d3
:020000040000fa
:10020800940200009402000094020000940200008e
:10021800940200009402000094020000940200007e
:10022800940200009402000094020000940200006e
:10023800940200009402000094020000940200005e
:10024800940200009402000094020000940200004e
:10025800940200009402000094020000940200003e
:100268009402000094020000940200003a06000084
:10027800940200009402000094020000940200001e
:10028800940200009402000094020000940200000e
:1002980094020000940200009402000094020000fe
:1002a80094020000940200009402000094020000ee
:1002b80094020000940200009402000094020000de
:1002c80094020000940200009402000094020000ce
:1002d80094020000940200009402000094020000be
:1002e80094020000940200009402000094020000ae
:1002f800940200009402000094020000940200009e
:10030800940200009402000094020000940200008d
:10031800940200009402000094020000940200007d
:10032800940200009402000094020000940200006d
:10033800940200009402000094020000940200005d
:10034800940200009402000094020000940200004d
:10035800940200009402000094020000940200003d
:10036800940200009402000094020000940200002d
:10037800940200009402000094020000940200001d
:10038800940200009402000094020000940200000d
:1003980094020000940200009402000094020000fd
:1003a80094020000940200009402000094020000ed
:1003b80094020000940200009402000094020000dd
:1003c80094020000940200009402000094020000cd
:1003d80094020000940200009402000094020000bd
:1003e80094020000940200009402000094020000ad
:0803f8009402000094020000d1
:020000040000fa
:10053000456e000074650000723a00000053000030
:1005400065740000204d00006f640000650000002d
:10055000416c0000726500006164000079000000d9
:10056000537400006f7200006564000000560000c4
:10057000616c000069640000004900006e760000b4
:10058000616c0000696400000042000061640000ca
:0c059000004700006f6f000064000000d6
:020000040000fa
:10059c002600fa00e4c4b300044f78000002eb001c
:1005ac00140798000002eb00240798003400200088
:1005bc00340798000002eb00440798000002eb009f
:1005cc00740798000002eb005407980014002000f8
:1005dc0064079800244d2000140f980009030700ad
:1005ec00d90107000042eb000440780050e8b70046
:1005fc000002eb00a40888000002eb00c40888008d
:10060c00f40f2e00d408880014002000e4088800a1
:10061c008780a9001fe1a9001e61a8001e81a80007
:10062c001ea1a800300307000300370000000000e3
:10063c0001003700000000001e029000e20f520083
:10064c000b0032008040eb000040eb002d03070054
:10065c0080292800450307002e02900004427800f0
:10066c008440780010c0b30026030700c300370095
:10067c001d0307008040eb000040eb002103070046
:10068c00f0292800390307000002eb00240798002a
:10069c00530037000485200014427800e14f5200cb
:1006ac004f003a00c201070000027800045798007e
:1006bc000042eb000440780050e8b7008e529000e6
:1006cc00f4c2b30084cf52002c0034008e52900040
:1006dc0094c3b30084cf520028003c0014002000c7
:1006ec00640798000002eb005407980007003700dd
:1006fc006e0290006a22b900040278006407980028
:10070c005e0290000402e80054079800de0290009c
:10071c003e029000848f5200f5ff35000e5290007f
:10072c000402fb0005fd2f00848242006e02900043
:10073c0004aab90004027800ce02900004824200a0
:10074c00440798003e0290000402e9003407980028
:10075c002e029000044278008440780010c0b30050
:10076c00e80207000e509000f70207002e029000de
:10077c000402e80024079800190037000e5290007c
:10078c00e14f4200160032002e0290000442780025
:10079c008440780010c0b300da0207000e509000bd
:1007ac00e90207008e52900034c2b30084cf52008d
:1007bc0006003a002e029000e40f520003003a00ab
:1007cc00140020001407980002003700e4ff2f00eb
:1007dc00140798002e0290000402e80024079800e9
:1007ec002e029000e50f5200aaff3a001e02900064
:1007fc00e10f520043003a00f20247004e02900013
:10080c0085007800040078003401070000027800ad
:10081c00740798007e029000e10f52001a003a0013
:10082c00b10207008040eb000040eb00b50207006e
:10083c00802a2800cd0207008040eb0010c0b300d6
:10084c00b0020700002b2800c80207001fe1a80017
:10085c0000000000350480000400210004826200c6
:10086c00e00f5200fbff32000002eb00a4088800ee
:10087c000002eb00c40888001fe1a9008780a900d2
:10088c009902070033003700944280000402e8000c
:10089c0094428800944280000402e9000402420061
:1008ac000402470072024200ce029000050a780052
:1008bc008d0207008040eb000040eb009102070026
:1008cc00702b2800a90207001fe1a80000000000ff
:1008dc00350480000400210004826200e00f520005
:1008ec00fbff32000002eb00a40888000002eb00c2
:1008fc00c40888001fe1a9008780a9007a020700bc
:10090c0014003700780207008040eb000040eb0039
:10091c007c020700d02b2800940207001fe1a800de
:10092c0000000000350480000400210004826200f5
:10093c00e00f5200fbff32000002eb00a40888001d
:10094c000002eb00c40888001fe1a9008780a90001
:10095c0065020700e4c4b300044f78000002eb000a
:10096c002407980034002000340798000002eb00a4
:10097c00440798000002eb0014079800048520003f
:10098c0014427800e14f520028ff3a00080107009a
:10099c0000027800045798000042eb0004407800f5
:1009ac0050e8b7000e5290000402fb003502200004
:1009bc00850f52001f003200a5022000850f520047
:1009cc0003003200e10f42005500320023003700d3
:1009dc002e0290000402e800240798000e509000ac
:1009ec0059020700f4c2b3009e42780084cf520033
:1009fc000700340094c3b3009e42780084cf5200a9
:100a0c0003003c000082eb0014079800060037003e
:100a1c00a4c2b3009e42780084cf520002003a0078
:100a2c0024002000140798000e529000044f780008
:100a3c003c0037000e509000430207000082eb0090
:100a4c00140798002e0290000402e8002407980076
:100a5c008e529000054f780032003700a4c2b300cc
:100a6c009e42780084cf520003003a000082eb00d3
:100a7c00140798002b00370014002000640798001e
:100a8c000002eb0054079800070037006e0290003c
:100a9c006a22b90004027800640798005e02900094
:100aac000402e80054079800de0290003e02900019
:100abc00848f5200f5ff35000e5290000402fb00ab
:100acc0005fd2f00848242006e02900004aab9003a
:100adc0004027800ce029000048242004407980081
:100aec002e0290000402e800240798003e029000b9
:100afc000402e900340798000e509000120207001f
:100b0c003e029000e10f420002003a001400200067
:100b1c00140798000e509000004f78000100370029
:100b2c00000000001e029000e10f42001f003a007e
:100b3c00ed0107008040eb000040eb00f1010700e5
:100b4c00502c2800090207001fe1a800000000003b
:100b5c00350480000400210004826200e00f520082
:100b6c00fbff32000002eb00a40888000002eb003f
:100b7c00c40888001fe1a9008780a900da010700da
:100b8c00e4c4b300044f78000002eb002407980083
:100b9c0034002000340798000002eb004407980052
:100bac000002eb0014079800a3fe37001e02900011
:100bbc00e10f52009ffe3a00cb0107008040eb0092
:100bcc000040eb00cf010700f20247004e029000fc
:100bdc0085007800040078004000070000027800cf
:100bec00740798007e029000e10f520003003a0057
:100bfc00902c2800dd01070002003700502c280043
:100c0c00da0107001fe1a800000000003504800095
:100c1c000400210004826200e00f5200fbff32004e
:100c2c000002eb00a40888000002eb00c408880056
:100c3c001fe1a9008780a900ab010700e4c4b30041
:100c4c00044f78000002eb002407980034002000c9
:100c5c00340798000002eb00440798000002eb00f8
:100c6c001407980074fe3700801f7800849fbe0024
:100c7c003400f80000002000a00188000000fa00f9
:100c8c008660a90005e1a800000000002404800093
:100c9c0068026200e00f5200fcff320005e1a9007f
:100cac008460a9005516800004c220008482620072
:100cbc0004c22000848f52000300320014c0b30021
:100ccc000440780050e8b7000080fa003400f900c6
:100cdc004f02be004f007800004006000600fa00ec
:100cec0010079800210798000002eb00040f780011
:100cfc000002eb00040f78000b0037001e02780096
:100d0c0004024200ae029000048242009402780079
:100d1c001e029000848f520002003a001400200042
:100d2c00060037001e0fe800944280009e027800f7
:100d3c00848f5200f1ff35000082eb000400780034
:100d4c000080fa00000006000000fa00c002a900b2
:100d5c00c022a900c842a900c862a900c8a2a80064
:100d6c00c942a800c962a800c602a800c622a800f1
:100d7c00ce42a800ce62a800c402a900c422a900d9
:100d8c00cc42a900cc62a9006b60a80069e0a80065
:100d9c006a00a8006360a80061e0a8006200a800d7
:100dac008660a9009660a8000080fa00000006008a
:100dbc000400fa0000c2eb00044f78000002eb00c4
:100dcc001407980004032000240888000002eb009c
:100ddc0004088800f4232000140888008460a9000b
:100dec0005e1a800000000002404800068026200f5
:100dfc00e00f5200fcff32000002eb0004088800f8
:100e0c0005e1a9008460a90014c3b300044f780065
:100e1c000002eb0014079800c402a900c422a80029
:100e2c00cc42a800cc62a8005516800004c2200059
:100e3c008482620004422000848f520006003a0033
:100e4c0034c3b300044f78001e0290000402e80083
:100e5c0014079800170037005516800004c22000b4
:100e6c008482620004822000848f520006003a00c3
:100e7c0024c3b300044f78001e0290000402e80063
:100e8c00140798000b0037005516800004c2200090
:100e9c008482620004c02000848f520005003a0056
:100eac0014c3b300044f78001e0290000402e80043
:100ebc0014079800c402a800c422a900cc42a800c0
:100ecc00cc62a8005516800004c220008482620007
:100edc0004422000848f520006003a0064c3b30021
:100eec00044f78001e0290000402e80014079800da
:100efc00170037005516800004c22000848262005f
:100f0c0004822000848f520006003a0054c3b300c0
:100f1c00044f78001e0290000402e80014079800a9
:100f2c000b0037005516800004c22000848262003a
:100f3c0004c02000848f520005003a0044c3b30063
:100f4c00044f78001e0290000402e8001407980079
:100f5c00c402a800c422a800cc42a900cc62a800fc
:100f6c005516800004c220008482620004422000d6
:100f7c00848f520006003a0094c3b300044f7800eb
:100f8c001e0290000402e8001407980017003700b6
:100f9c005516800004c22000848262000482200066
:100fac00848f520006003a0084c3b300044f7800cb
:100fbc001e0290000402e800140798000b00370092
:100fcc005516800004c220008482620004c02000f8
:100fdc00848f520005003a0074c3b300044f7800ac
:100fec001e0290000402e80014079800c402a80036
:100ffc00c422a800cc42a800cc62a90055168000df
:10100c0004c220008482620004422000848f5200bb
:10101c0006003a0034c2b300044f78001e02900060
:10102c000402e800140798001700370055168000da
:10103c0004c220008482620004822000848f52004b
:10104c0006003a0004c3b300044f78001e0290005f
:10105c000402e800140798000b00370055168000b6
:10106c0004c220008482620004c02000848f5200dd
:10107c0005003a00a4c2b300044f78001e02900091
:10108c000402e80014079800c402a900c422a900b5
:10109c00cc42a900cc62a9001e029000e10f5200c4
:1010ac0002003a001e42780005003700c402a90075
:1010bc00c422a900cc42a900cc62a90000c2eb005a
:1010cc00044078000080fa00000006000200fa00dc
:1010dc00000f780004012800840888000002eb004f
:1010ec00340888001e027800040242000402e90061
:1010fc006408880084e0a90000000000250480003a
:10110c000408200004826200e00f5200fbff320052
:10111c0011e1a90084e0a9000080fa00000006009b
:10112c000400fa00004f7800110798009e427800e6
:10113c0061c262000482fb00610262004722dd0092
:10114c0066168000f5f72f0085026300048272009a
:10115c00641688001e009000dcff0700ccc2a800bb
:10116c001e009000d9ff0700ccc2a9001e00900001
:10117c00d6ff07000080fa00000006000600fa0007
:10118c00004f780011079800220798006516800020
:10119c00f4ff2000848262001e4278000483fb006e
:1011ac00040f2000040263004822dd000482720058
:1011bc00641688001e02900004427800ae00900075
:1011cc0004407800d6ff070065168000f4ff20006d
:1011dc00848262001e4378000682fb004c22dd00f4
:1011ec0004827200641688001e029000044278008b
:1011fc00ae00900004407800c9ff07000080fa00a0
:10120c00000006000000fa00c8e2a900c8c2a9004c
:10121c00c9e2a900c9c2a900c9a2a900c982a90032
:10122c000002eb0064168800cce2a900ccc2a90035
:10123c0080a92300a5ff070065168000f4ff20009d
:10124c008482620004002300048272006416880009
:10125c00410021000040eb00b1ff07006516800043
:10126c00f4ff2000848262000400230004827200d8
:10127c0064168800410620000040eb00a8ff070020
:10128c00420620008000eb0020c3b300bbff070028
:10129c00820220008000eb0080c2b300b7ff070081
:1012ac00820220008000eb0080c0b300b3ff070077
:1012bc00826620008000eb0010c0b300afff070077
:1012cc00820220008000eb0060c0b300abff07007f
:1012dc00220320008000eb00c0c0b300a7ff070072
:1012ec000080fa00000006000000fa00025f2000f7
:1012fc008000eb0010c0b300a0ff07000080fa00d4
:10130c00000006000200fa00004f78001147980018
:10131c009e4278000582fb004622dd008442780064
:10132c0004c8b30084c272001e42900004c2720052
:10133c00820220008000eb00044078008fff070041
:10134c000080fa00000006000200fa00004f78004e
:10135c001e42780082022000110020000440780018
:10136c0086ff07000080fa00000006000200fa0069
:10137c00000f7800050037001e0278001442780038
:10138c001e0fe80004407800efff07001e027800f3
:10139c0014427800e04f5200f7ff3a000080fa0048
:0413ac000000060037
:020000040000fa
:1013b0005008000002000000000000005208000079
:1013c0000200000002000000010000000000000018
:00000001FF
